:060000000A128A11122809
:10000800FE00030EF2000408F3000A08F40083124D
:1000180003137F08F5000A128A11D62D0A128A11D5
:10002800702E8B170B17831603130C178801870183
:1000380083120313880187010A128A1117260A12EC
:100048008A1180300A128A1146260A128A1106304D
:1000580083120313BC003C08A30001300A128A1162
:10006800AA250A128A114130831203139F008E3089
:10007800831603139F004028831203131F080438B4
:100088009F00F230AC000230AD004030AE004608B0
:10009800A901A9074508A801A8070A128A11FC2581
:1000A8000A128A11831203132808AF002908B00026
:1000B8002A08B1000A128A114B220A128A118312E5
:1000C80003132C08BD002D08BE002E08BF00003009
:1000D800A800C830A9004230AA003D08AB003E087D
:1000E800AC003F08AD000A128A115D210A128A117C
:1000F800831203132808C0002908C1002A08C20077
:1001080089300A128A1146260A128A110A30831285
:100118000313AE000030AF004008A0004108A10062
:100128004208A2000A128A1113230A128A118312A2
:1001380003132108B101B1072008B001B0070A1262
:100148008A1136240A128A11831203132F08C40154
:10015800C4072E08C301C3070A30AE000030AF0041
:100168004008A0004108A1004208A2000A128A1112
:1001780013230A128A11831203132108B101B1074C
:100188002008B001B0070A128A11AC240A128A1199
:10019800831203132F08C801C8072E08C701C70711
:1001A8000A30A0000030A1004408A301A3074308B7
:1001B800A201A2070A128A1164250A128A1183125F
:1001C80003132108CA01CA072008C901C9070A3050
:1001D800A0000030A1004408A301A3074308A2011E
:1001E800A2070A128A1114250A128A11831203130C
:1001F8002108CC01CC072008CB01CB070A30A0008E
:100208000030A1004C08A301A3074B08A201A207D4
:100218000A128A1164250A128A118312031321080B
:10022800CE01CE072008CD01CD070A30A00000304E
:10023800A1004C08A301A3074B08A201A2070A12B8
:100248008A1114250A128A11831203132108D00176
:10025800D0072008CF01CF074F08303E0A128A1175
:100268005B260A128A11831203134D08303E0A12C4
:100278008A115B260A128A112E300A128A115B260D
:100288000A128A11831203134908303E0A128A118E
:100298005B260A128A11831203134708303E0A129A
:1002A8008A115B260A128A11402840280A128A11EC
:1002B8001228831203132808AE002908AF002A0861
:1002C800B00003102F0D300DB1003108B200B20894
:1002D800031D6F29702978290030A8000030A90073
:1002E8000030AA004A2A4A2A2B08AE002C08AF0080
:1002F8002D08B00003102F0D300DB1003108B700E4
:10030800B708031D8829892991290030A8000030E1
:10031800A9000030AA004A2A4A2A37087B3EAE00C4
:100328002E08B2072808AE002908AF002A08B00036
:1003380010300310B00CAF0CAE0CFF3E031D9D290E
:100348002E08B1003108B7002B08AE002C08AF000A
:100358002D08B00010300310B00CAF0CAE0CFF3EEF
:10036800031DAF292E08B1003108B7068030AE0052
:100378002E08B705A917AC17FF30AB05FF30AC0541
:100388000030AD050030B3000030B4000030B500D7
:100398000730AE002E08B600D129281CD429D5294B
:1003A800E6292B08B3072C08031103182C0A031994
:1003B800DE29B4072D08031103182D0A0319E529AE
:1003C800B507E62901300310AA0CA90CA80CFF3EBA
:1003D800031DE72901300310AB0DAC0DAD0DFF3E39
:1003E800031DEF290130B602031DFB29FC29D12981
:1003F800FD290930AE002E08B600022A281C052A5D
:10040800062A172A2B08B3072C08031103182C0AED
:1004180003190F2AB4072D08031103182D0A03190D
:10042800162AB507172A01300310AA0CA90CA80C24
:10043800FF3E031D182A01300310B50CB40CB30C91
:10044800FF3E031D202A0130B602031D2C2A2D2A47
:10045800022A2E2A3308A0003408A1003508A20079
:100468003208AE002E08A3003708AF002F08A400FA
:100478000A128A11B9230A128A1183120313200857
:10048800A8002108A9002208AA004A2A0800831205
:1004980003132F08B2003008B3003108B40003106A
:1004A800330D340DB5003508BA00BA08031D5D2AAE
:1004B8005E2A662A0030AC000030AD000030AE0085
:1004C800122B122B2C08B2002D08B3002E08B400F2
:1004D8000310330D340DB5003508BB00BB08031DF0
:1004E800762A772A7F2A0030AC000030AD00003031
:1004F800AE00122B122B0030B7000030B8000030CD
:10050800B90089303B07B2003208BA022F08B2009E
:100518003008B3003108B40010300310B40CB30C29
:10052800B20CFF3E031D912A3208B5003508BB0006
:100538002C08B2002D08B3002E08B40010300310A8
:10054800B40CB30CB20CFF3E031DA32A3208B5004D
:100558003508BB068030B2003208BB05B017FF3043
:10056800AF05FF30B0050030B105AD17FF30AC0561
:10057800FF30AD050030AE051830B2003208B600C5
:10058800C52A01300310B70DB80DB90DFF3E031D84
:10059800C62A2E083102031DD72A2D083002031D52
:1005A800D72A2C082F02031CDA2ADB2AE72A2C0870
:1005B800AF022D08031C2D0FB0022E08031C2E0AB3
:1005C800B1023714E72A01300310AF0DB00DB10D99
:1005D800FF3E031DE82A0130B602031DF42AF52A5E
:1005E800C52AF62A3708A0003808A1003908A20051
:1005F8003A08B2003208A3003B08B3003308A4004D
:100608000A128A11B9230A128A11831203132008C5
:10061800AC002108AD002208AE00122B080083129E
:1006280003132008A4002108A5002208A60003102F
:10063800250D260DA7002708AD00AD08031D252BA5
:10064800262B302B0030A3000030A2000030A10080
:100658000030A000B82BB82B2008A4002108A50062
:100668002208A60017300310A60CA50CA40CFF3E08
:10067800031D372B2408A7002708A800A117FF305F
:10068800A005FF30A1050030A2052008A900210817
:10069800AA002208AB00AC018E30AD02AD1F552B6D
:1006A800562B7B2B2D08803A8F3E03185C2B5D2B35
:1006B800682B0030A3000030A2000030A1000030F9
:1006C800A000B82BB82B682B01300310AC0CAB0C76
:1006D800AA0CA90CFF3E031D692B0130A4002408B5
:1006E800AD07031D782B792B682B9F2B9F2B183078
:1006F8002D02031C802B812B982B0030A300003087
:10070800A2000030A1000030A000B82BB82B982B15
:100718000130A4000310A90DAA0DAB0DAC0DA40B5C
:100728008E2B0130AD02982BAD08031D9C2B9D2B01
:100738008C2B9F2B9F2B2808031DA32BAF2BA909BC
:10074800AA09AB09AC09A90A0319AA0A0319AB0A31
:100758000319AC0AAF2B2C08A3002B08A2002A0807
:10076800A1002908A000B82B08008312031323084E
:10077800031DBF2BC72B220821042004031DC52BF2
:10078800C62BDD2BC72B0030A0000030A1000030A5
:10079800A200352C352CDD2B0130A5002508A30738
:1007A80001300310A20CA10CA00CFF3E031DD52B99
:1007B800DD2BFE302205031DE22BE32BD02BFB2B78
:1007C800FB2B0130A5002508A3070130A007003046
:1007D80003180130A107003003180130A2070130C7
:1007E8000310A20CA10CA00CFF3E031DF42BFF303C
:1007F8002205031D002C012CE52B0E2C0E2C01309C
:10080800A30201300310A00DA10DA20DFF3E031D90
:10081800062C0E2CA11F112C122C032C2318152C7E
:10082800162C1C2CFF30A0057F30A105FF30A20537
:100838000310A30C2308A500A601A701103003107C
:10084800A50DA60DA70DFF3E031D232C2508A0040A
:100858002608A1042708A2042408031D342C352CDB
:10086800A217080083120313B401AF1F3C2C3D2CC0
:10087800462CAE09AF09AE0A0319AF0AB401031436
:10088800B40D462CB11F492C4A2C542CB009B1097F
:10089800B00A0319B10A0130B2003208B406542C68
:1008A800B501B6012F082E0403195B2C5C2C9A2C79
:1008B800B3010314B30D6C2C01300310AE0DAF0D52
:1008C800FF3E031D612C0130B2003208B3076C2CC7
:1008D800AF1F6F2C702C602C722C722C01300310FF
:1008E800B50DB60DFF3E031D732C2F083102031DF5
:1008F8007F2C2E083002031C822C832C8B2C2E0874
:10090800B0022F08031CB103B10235148B2C01303F
:100918000310AF0CAE0CFF3E031D8C2C0130B3024C
:10092800031D972C982C722C9A2C9A2C3408031D92
:100938009E2CA42CB509B609B50A0319B60AA42C2D
:100948003608AF01AF073508AE01AE07AB2C08007B
:1009580083120313B401B11FB22CB32CBC2CB00901
:10096800B109B00A0319B10AB4010314B40DBC2CBF
:10097800AF1FBF2CC02CC62CAE09AF09AE0A031995
:10098800AF0AC62C2F082E040319CB2CCC2C022D11
:10099800B3010314B30DDC2C01300310AE0DAF0D01
:1009A800FF3E031DD12C0130B2003208B307DC2C06
:1009B800AF1FDF2CE02CD02CE22CE22C2F083102C8
:1009C800031DE82C2E083002031CEB2CEC2CF32C16
:1009D8002E08B0022F08031CB103B102F32C01301A
:1009E8000310AF0CAE0CFF3E031DF42C0130B30214
:1009F800031DFF2C002DE22C022D022D3408031DAF
:100A0800062D0C2DB009B109B00A0319B10A0C2D35
:100A18003108AF01AF073008AE01AE07132D08004B
:100A280083120313A601A7012108200403191D2D11
:100A38001E2D5C2DA5010314A50D2E2D01300310CC
:100A4800A00DA10DFF3E031D232D0130A400240895
:100A5800A5072E2DA11F312D322D222D342D342DF9
:100A680001300310A60DA70DFF3E031D352D2108EB
:100A78002302031D412D20082202031C442D452D6D
:100A88004D2D2008A2022108031CA303A30226144B
:100A98004D2D01300310A10CA00CFF3E031D4E2D5F
:100AA8000130A502031D592D5A2D342D5C2D5C2DC6
:100AB8002708A101A1072608A001A007632D0800A7
:100AC800831203132108200403196B2D6C2DA22D0A
:100AD800A5010314A50D7C2D01300310A00DA10D57
:100AE800FF3E031D712D0130A4002408A5077C2DAD
:100AF800A11F7F2D802D702D822D822D210823028C
:100B0800031D882D20082202031C8B2D8C2D932D6C
:100B18002008A2022108031CA303A302932D01307D
:100B28000310A10CA00CFF3E031D942D0130A5025B
:100B3800031D9F2DA02D822DA22DA22D2308A101DA
:100B4800A1072208A001A007A92D080083120313FA
:100B5800A500A601CE2D2608250784000A128A11B1
:100B68007F260A128A110A128A115B260A128A1132
:100B7800F43083120313A0000130A1000A128A1175
:100B880030260A128A11013083120313A4002408A4
:100B9800A607CE2D23082602031CD32DD42DAF2D56
:100BA800D52D08000C1FD92DDA2DF12D1E08F000C7
:100BB800F1017008F100F0017008C5007108C60065
:100BC800831603131E08831203134507C50046083E
:100BD8000318460AC6000C13F12D7508FF007408A7
:100BE8008A0073088400720E8300FE0E7E0E0900D0
:100BF800831203132808A0002908A100A2018E303F
:100C0800AB002B08A300A4010A128A11B9230A1207
:100C18008A11831203132008A8002108A9002208BA
:100C2800AA00162E080038300A128A1146260A121F
:100C38008A1106300A128A1146260A128A110C30C5
:100C48000A128A1146260A128A1101300A128A11DA
:100C580046260A128A110800322E322E01308312DB
:100C68000313A0020030031CA103A102FF302106D8
:100C7800031D402EFF302006031D432E442E322E26
:100C8800452E080083120313A200220887000815C6
:100C980008108810F430A0000130A1000A128A114F
:100CA80030260A128A1183120313081108008312CE
:100CB8000313A20022088700081508148810F430CE
:100CC800A0000130A1000A128A1130260A128A11E6
:100CD8008312031308110800F601F70183133D304E
:100CE800840051300A128A118C260A128A11830153
:100CF8000A128A11152806308A000408840A820715
:100D08000034543445344D3450343A343D3400348E
:100D180064008001840A04060319003404068D2E39
:02400E00BAFFF7
:00000001FF
